{
  "_format": "hh-sol-artifact-1",
  "contractName": "Vault",
  "sourceName": "contracts/Vault.sol",
  "abi": [
    {
      "inputs": [
        {
          "internalType": "address",
          "name": "_token",
          "type": "address"
        }
      ],
      "stateMutability": "nonpayable",
      "type": "constructor"
    },
    {
      "anonymous": false,
      "inputs": [
        {
          "indexed": false,
          "internalType": "address",
          "name": "addr",
          "type": "address"
        },
        {
          "indexed": false,
          "internalType": "uint256",
          "name": "amount",
          "type": "uint256"
        }
      ],
      "name": "Deposit",
      "type": "event"
    },
    {
      "anonymous": false,
      "inputs": [
        {
          "indexed": false,
          "internalType": "address",
          "name": "addr",
          "type": "address"
        },
        {
          "indexed": false,
          "internalType": "uint256",
          "name": "amount",
          "type": "uint256"
        }
      ],
      "name": "Withdraw",
      "type": "event"
    },
    {
      "inputs": [
        {
          "internalType": "uint256",
          "name": "amount",
          "type": "uint256"
        }
      ],
      "name": "deposit",
      "outputs": [],
      "stateMutability": "nonpayable",
      "type": "function"
    },
    {
      "inputs": [
        {
          "internalType": "address",
          "name": "",
          "type": "address"
        }
      ],
      "name": "deposited",
      "outputs": [
        {
          "internalType": "uint256",
          "name": "",
          "type": "uint256"
        }
      ],
      "stateMutability": "view",
      "type": "function"
    },
    {
      "inputs": [],
      "name": "token",
      "outputs": [
        {
          "internalType": "address",
          "name": "",
          "type": "address"
        }
      ],
      "stateMutability": "view",
      "type": "function"
    },
    {
      "inputs": [
        {
          "internalType": "uint256",
          "name": "amount",
          "type": "uint256"
        }
      ],
      "name": "withdraw",
      "outputs": [],
      "stateMutability": "nonpayable",
      "type": "function"
    },
    {
      "inputs": [],
      "name": "withdrawAll",
      "outputs": [],
      "stateMutability": "nonpayable",
      "type": "function"
    }
  ],
  "bytecode": "0x60a060405234801561001057600080fd5b506040516109e43803806109e4833981810160405281019061003291906100cf565b8073ffffffffffffffffffffffffffffffffffffffff1660808173ffffffffffffffffffffffffffffffffffffffff1681525050506100fc565b600080fd5b600073ffffffffffffffffffffffffffffffffffffffff82169050919050565b600061009c82610071565b9050919050565b6100ac81610091565b81146100b757600080fd5b50565b6000815190506100c9816100a3565b92915050565b6000602082840312156100e5576100e461006c565b5b60006100f3848285016100ba565b91505092915050565b6080516108bf61012560003960008181610149015281816102d1015261040201526108bf6000f3fe608060405234801561001057600080fd5b50600436106100575760003560e01c80632e1a7d4d1461005c578063853828b614610078578063b6b55f2514610082578063cb13cddb1461009e578063fc0c546a146100ce575b600080fd5b61007660048036038101906100719190610516565b6100ec565b005b6100806100f8565b005b61009c60048036038101906100979190610516565b610147565b005b6100b860048036038101906100b391906105a1565b6102b7565b6040516100c591906105dd565b60405180910390f35b6100d66102cf565b6040516100e39190610607565b60405180910390f35b6100f5816102f3565b50565b60008060003373ffffffffffffffffffffffffffffffffffffffff1673ffffffffffffffffffffffffffffffffffffffff168152602001908152602001600020549050610144816102f3565b50565b7f000000000000000000000000000000000000000000000000000000000000000073ffffffffffffffffffffffffffffffffffffffff166323b872dd3330846040518463ffffffff1660e01b81526004016101a493929190610622565b6020604051808303816000875af11580156101c3573d6000803e3d6000fd5b505050506040513d601f19601f820116820180604052508101906101e79190610691565b610226576040517f08c379a000000000000000000000000000000000000000000000000000000000815260040161021d9061071b565b60405180910390fd5b806000803373ffffffffffffffffffffffffffffffffffffffff1673ffffffffffffffffffffffffffffffffffffffff1681526020019081526020016000206000828254610274919061076a565b925050819055507fe1fffcc4923d04b559f4d29a8bfc6cda04eb5b0d3c460751c2402c5c5cc9109c33826040516102ac9291906107c0565b60405180910390a150565b60006020528060005260406000206000915090505481565b7f000000000000000000000000000000000000000000000000000000000000000081565b806000803373ffffffffffffffffffffffffffffffffffffffff1673ffffffffffffffffffffffffffffffffffffffff168152602001908152602001600020541015610374576040517f08c379a000000000000000000000000000000000000000000000000000000000815260040161036b90610835565b60405180910390fd5b806000803373ffffffffffffffffffffffffffffffffffffffff1673ffffffffffffffffffffffffffffffffffffffff168152602001908152602001600020546103be9190610855565b6000803373ffffffffffffffffffffffffffffffffffffffff1673ffffffffffffffffffffffffffffffffffffffff168152602001908152602001600020819055507f000000000000000000000000000000000000000000000000000000000000000073ffffffffffffffffffffffffffffffffffffffff1663a9059cbb33836040518363ffffffff1660e01b815260040161045b9291906107c0565b6020604051808303816000875af115801561047a573d6000803e3d6000fd5b505050506040513d601f19601f8201168201806040525081019061049e9190610691565b507f884edad9ce6fa2440d8a54cc123490eb96d2768479d49ff9c7366125a942436433826040516104d09291906107c0565b60405180910390a150565b600080fd5b6000819050919050565b6104f3816104e0565b81146104fe57600080fd5b50565b600081359050610510816104ea565b92915050565b60006020828403121561052c5761052b6104db565b5b600061053a84828501610501565b91505092915050565b600073ffffffffffffffffffffffffffffffffffffffff82169050919050565b600061056e82610543565b9050919050565b61057e81610563565b811461058957600080fd5b50565b60008135905061059b81610575565b92915050565b6000602082840312156105b7576105b66104db565b5b60006105c58482850161058c565b91505092915050565b6105d7816104e0565b82525050565b60006020820190506105f260008301846105ce565b92915050565b61060181610563565b82525050565b600060208201905061061c60008301846105f8565b92915050565b600060608201905061063760008301866105f8565b61064460208301856105f8565b61065160408301846105ce565b949350505050565b60008115159050919050565b61066e81610659565b811461067957600080fd5b50565b60008151905061068b81610665565b92915050565b6000602082840312156106a7576106a66104db565b5b60006106b58482850161067c565b91505092915050565b600082825260208201905092915050565b7f5472616e736665722066726f6d206572726f7200000000000000000000000000600082015250565b60006107056013836106be565b9150610710826106cf565b602082019050919050565b60006020820190508181036000830152610734816106f8565b9050919050565b7f4e487b7100000000000000000000000000000000000000000000000000000000600052601160045260246000fd5b6000610775826104e0565b9150610780836104e0565b9250827fffffffffffffffffffffffffffffffffffffffffffffffffffffffffffffffff038211156107b5576107b461073b565b5b828201905092915050565b60006040820190506107d560008301856105f8565b6107e260208301846105ce565b9392505050565b7f496e73756666696369656e7420616d6f756e7400000000000000000000000000600082015250565b600061081f6013836106be565b915061082a826107e9565b602082019050919050565b6000602082019050818103600083015261084e81610812565b9050919050565b6000610860826104e0565b915061086b836104e0565b92508282101561087e5761087d61073b565b5b82820390509291505056fea26469706673582212208b6c989e1af4202121fea1b1f85d2ee30a94cb1950312047430a08e7a794709a64736f6c634300080c0033",
  "linkReferences": {},
  "deployedLinkReferences": {}
}